02RETORNO01COBRANÇA CNR   12345001234567890 1 EMPRESA ABCDEFGHIJKLMNOPQRSTUV399HSBC           23071406250BPI1234567890AGENCIA ABCDEFGHIJKL1234                                                                                                                                                                                                                                                      VOLSER000001